:020000040800F2
:10000000580500200501000817230008E71D000817
:1000100015230008C90800088D270008000000000B
:100020000000000000000000000000004123000864
:10003000110A0008000000001923000843230008EB
:100040001F0100081F0100081F0100081F01000810
:100050001F0100081F0100081F0100081F01000800
:100060001F0100081F0100081F0100081F010008F0
:100070001F0100081F0100081F0100081F010008E0
:100080001F0100081F0100081F0100081F010008D0
:100090001F0100081F0100081F0100081F010008C0
:1000A0001F0100081F0100081F0100081F010008B0
:1000B0001F0100081F0100081F0100081F010008A0
:1000C0001F0100081F0100081F0100081F01000890
:1000D0001F0100081F0100081F0100081F01000880
:1000E0001F0100081F0100081F010008DFF810D0E1
:1000F00000F05AFB0048004791310008AFF3008040
:10010000580500200648804706480047FEE7FEE7FE
:10011000FEE7FEE7FEE7FEE7FEE7FEE7FEE7FEE7B7
:10012000A5230008ED000008202A04DB203A21FA6C
:1001300002F00021704721FA02F3D040C2F1200200
:100140009140084319467047D2B201E000F8012BF4
:10015000491EFBD270470022F6E710B513460A4647
:1001600004461946FFF7F0FF204610BD421C10F868
:10017000011B0029FBD1801A7047F0B480EA01020C
:10018000D40F4200B2EB410F02D20246084611469C
:100190004A0042D0C30DDDB2C1F3C752AD1A202DC3
:1001A00035DAC1F3160141F4000204B15242C5F13F
:1001B000200602FA06F12A411044B3EBD05F23D0A7
:1001C000C4B1012DA0EBC35009DCF0BC4FF00042DC
:1001D00002EAC352DBB200F5000000F0FEB84000B6
:1001E00000F1807000EBC350A0F1807040EAD17044
:1001F000490009E0490841EAC071A0EBC35000F58D
:100200000000400800EBC350F0BC00F0DDB86142D4
:10021000012202EB4101001BF6E7F0BC704781F0C0
:100220000041AAE780F00040A7E780EA010210B58C
:1002300002F00043400022D04A001FD0010E01EB23
:100240001261C0F35600C2F3560240F4000042F4BB
:100250000002A0FB022000047F39140400D0401CDF
:1002600050EA124001D44000491EC2B20C0604EB11
:10027000D010401C4008802A02D003E0002010BDAE
:1002800020F00100002900DA0020184310BD30B42E
:1002900080EA010202F0004530F0004221F0004007
:1002A00013D090B1C30DD40DC2F31601C0F31600E4
:1002B000E41A41F4000140F400027D34914201D37C
:1002C000641C00E04900002C02DA30BC00207047BA
:1002D0004FF400000023914201D3891A03434008E0
:1002E0004FEA4101F7D151B1914202D14FF00041A3
:1002F00005E002D24FF0010101E06FF0010103EBD4
:10030000C450284430BC00F05FB896230022114648
:1003100000F063B800F0004230F000400AD0C10D98
:1003200001F56071C0F3160042EA0151C2084007AE
:100330001143704700200146704730B50B46014617
:1003400000202022012409E021FA02F59D4205D374
:1003500003FA02F5491B04FA02F52844151EA2F11E
:100360000102F1DC30BD2DE9F05F05460020924628
:100370009B4688460646814640241BE02846414667
:1003800047462246FFF7D0FE53465A46C01A9141CF
:1003900010D311461846224600F018FA2D1A67EBC2
:1003A00001084F4622460120002100F00FFA17EB0A
:1003B00000094E41201EA4F10104DFDC484631460D
:1003C0002A464346BDE8F09F0029A8BF7047401C5D
:1003D000490008BF20F00100704710B4B0FA80FC5B
:1003E00000FA0CF050EA010404BF10BC704749B198
:1003F000CCF1200421FA04F411FA0CF118BF012108
:1004000021430843A3EB0C01CB1D4FEA00614FEAE7
:10041000102042BF002010BC704700EBC3501044B6
:100420000029A4BF10BC7047401C490008BF20F041
:10043000010010BC70472DE9FE4F804681EA0300A1
:10044000C00F0C46009021F0004123F00045B8EBAE
:100450000200A94105D24046214690461C460B4663
:10046000024623F00040104347D0270DC7F30A008F
:10047000C3F30A510290401A019040286BDAC3F38B
:10048000130040F4801B0098924620B10023D2EB69
:10049000030A63EB0B0B01985946C0F1400250462A
:1004A00000F094F906460D4650465946019A00F070
:1004B0009CF910EB08006141002487EA115284EA9C
:1004C000E7731A4340D0009A62B3019A012A4FEAB7
:1004D000075215DC001B61EB02014FF0004202EAFB
:1004E0000752CDE90042001C41F5801132462B46EF
:1004F00000F09CF903B0BDE8F08F40462146F9E7D3
:10050000001B61EB0201001C41F5801300185B41E8
:100510002018A2F5001747EB030140EAD570B61981
:100520006D4111E06D084FEA360645EAC0754FEAA5
:100530000752001B61EB0201001C41F580114908C4
:100540004FEA30000019514132462B4603B0BDE856
:10055000F04F00F05CB90098012240000023D0EB7E
:10056000020263EBE073009821464FEAE074B8EBB7
:10057000000061EB0401E9E783F000435BE781F0F1
:10058000004158E72DE9FE4F81EA030404F00044DE
:1005900021F0004100944FF0000B23F0004350EA9B
:1005A00001045ED052EA03045BD0C3F30A54C1F3E2
:1005B0000A552C44A4F2F3340194A0FB0254C1F375
:1005C000130141F48011C3F3130343F4801301FBBF
:1005D000024400FB034E840A970A44EA815447EA26
:1005E0008357A4FB076802958D0A05FB07854FEA30
:1005F000932C04FB0C542705029D4FEA065847EA4A
:100600001637B5EB08056EEB070C870E920E47EA1E
:10061000811742EA8312A7FB0201B6EB0B0164EBE0
:1006200000042B0D43EA0C335E1844EB1C50DA46F1
:100630005146E7FB0201C5F313044FEA0B3343EACB
:1006400014534FEA0432019C43EA0603A4F10C045C
:100650000294009CCDE900B400F0E8F803B0BDE8D6
:10066000F08F00200146F9E72DE9F04D81EA0304FF
:1006700004F0004B21F0004514464FF0000A23F02F
:10068000004150EA050220D054EA01021DD0C5F312
:100690000A570246C5F31303C1F31300C1F30A5608
:1006A00040F4801543F48013A7EB0608101BD646D0
:1006B00008F2FD3873EB050002D308F1010801E0F0
:1006C00092185B41B8F1000F03DA00200146BDE843
:1006D000F08D00204FF48011064684460EE0171B73
:1006E00073EB050705D3121B63EB050306434CEAC6
:1006F000010C49084FEA300092185B4150EA0107AB
:10070000EDD152EA030012D082EA040083EA050127
:10071000084305D0101BAB4106D20122002306E09E
:1007200000224FF0004302E06FF0010253101AEB79
:1007300006004CEB085110EB0A0041EB0B01BDE841
:10074000F04D00F064B8C1F30A52C1F3130140F256
:10075000FF3341F480119A4202DA002001467047CB
:1007600040F233439A42A2F2334202DC5242FFF794
:10077000DBBC00F02BB8000030B5041E71F10004A2
:1007800004DB4FF00044404264EB0101141E73F19E
:10079000000405DB1C464FF00043524263EB0403A8
:1007A000994208BF904230BD064C074D06E0E06814
:1007B00040F0010394E8070098471034AC42F6D3A8
:1007C000FFF798FCE433000804340008202A04DB17
:1007D000203A00FA02F1002070479140C2F1200354
:1007E00020FA03F3194390407047202A06DBCB1709
:1007F000203A41FA02F043EAE07306E041FA02F3DC
:10080000D040C2F12002914008431946704710B50C
:10081000141E73F1000408DA401C41F10001921823
:100820005B411A4301D120F0010010BD2DE9F04DCC
:1008300092469B4611B1B1FA81F202E0B0FA80F221
:1008400020329046FFF7C2FF04460F4640EA0A00F6
:1008500041EA0B0153465A46084313D0114653EA66
:10086000010019D0C8F140025046FFF75DFC054673
:100870000E46504659464246FFF7A8FF084305D0AA
:10088000012004E020463946BDE8F08D00200543F4
:1008900046EAE0762C4337430A986305E40AA0EB66
:1008A00008000022FD0A44EA47540A3002D500201D
:1008B0000146E9E7010510196941DDE9084500191C
:1008C0006941BDE8F04DA2E7FEE700002DE9F047E1
:1008D00000254FF0010A4FF40079DFF88480214CA5
:1008E00000F0B8F9606100F0B5F94F46A06102E090
:1008F00000F0B0F9A0613946404600F09DF920B9FA
:10090000D4E90501801C8842F2D8282002F048FD75
:10091000B94639464746404600F08EF90028C5F1F1
:1009200007010AFA01F019D03043C6B200F092F97B
:10093000C4F8140000F08EF9A0614946384600F072
:100940007BF920B1D4E90501801C8842F2D86D1CE6
:10095000EDB2082DC4D33046BDE8F0878643E5E705
:10096000000C0140000000202DE9FF41002502207D
:100970004FF400744FF00108CDE90250224ECDE94A
:1009800000482F466946304600F058F800222146BC
:10099000304600F058F94FF4E16002F001FD012209
:1009A0002146304600F04FF91E2002F0F9FCCDE957
:1009B00001786946304600F041F8282002F0F0FC4A
:1009C0002146304600F038F940B9502002F0E8FCEA
:1009D0002146304600F030F900B1012500F03AF927
:1009E0000A4F786100F036F9B8612146304600F0D0
:1009F00023F920B1D7E90501801C8842F2D804B060
:100A00002846BDE8F0810000000C014000000020F5
:100A10007047000070B5044600F01CF90546B4F1BB
:100A2000FF3F02D004480078044400F013F9401B53
:100A3000A042FAD370BD00001C0000202DE9F84F41
:100A40004FF0000C00230A68002A7DD0DFF8DC811B
:100A50000F27A8F1040A08F10409AAF1040B0122E6
:100A600002FA0CF60A683240B2426ED1DFF8C0E1F9
:100A70004C68A4EB0E0574452BD00DDC032C34D050
:100A800005DC34B3012C19D0022C2FD11BE0112C22
:100A900016D0122C2AD119E0B5F5881F19D006DC22
:100AA000B5F5803F15D0B5F5801F1FD111E0B5F524
:100AB000001F0ED0B5F5041F18D10AE0CB6815E071
:100AC000CB681B1D12E0CB6808330FE0CB680C33FA
:100AD0000CE08B6823B1012B04D00823466105E0AC
:100AE000042303E00823066100E00023B2F5807FC1
:100AF00001D2054601E000F1040502D24FEA8C0460
:100B000003E0ACF108044FEA84042E6807FA04FEFF
:100B100026EA0E0603FA04F446EA04042C604C6844
:100B200014F0805F79D0434CA56945F00105A561BB
:100B3000A46904F0010400942CF0030404F180443F
:100B400004F58034A66801E06EE066E04FEA8C753B
:100B50004FEA157507FA05FE26EA0E0EA0F180464B
:100B6000B6F584361ED0A0F18046B6F586361BD089
:100B7000A0F18046B6F5883618D0A0F18046B6F5CB
:100B80008A3615D0042606FA05F545EA0E05A56055
:100B90004C6814F4801F0DD0D8F800401443C8F8F6
:100BA00000400CE00026EEE70126ECE70226EAE72B
:100BB0000326E8E7D8F800409443C8F800404C68A2
:100BC00014F4001F05D0D9F800401443C9F80040C0
:100BD00004E0D9F800409443C9F800404C6814F48C
:100BE000003F05D0DAF800401443CAF8004004E0A2
:100BF000DAF800409443CAF800404C6814F4803F8F
:100C000005D0DBF800402243CBF8002005E0DBF8FC
:100C1000004024EA0202CBF800200CF1010C0A6823
:100C200032FA0CF27FF41BAFBDE8F88F08040140E4
:100C300000001110001002408068084201D001201D
:100C4000704700207047002A01D0016170470904F5
:100C50000161704701488068704700001C00002057
:100C600070B50446002C04D094F83D00002510B166
:100C700006E0012070BD84F83C50204600F076F973
:100C8000242084F83D002068016821F00101016002
:100C90002068016841F4004101602068016821F486
:100CA0000041016000F0F6FA544B6168994203D8A4
:100CB0005349884203D304E05249884201D20120BB
:100CC00070BD5149B0FBF1F12268D2F804C02CF09C
:100CD0003F0C4CEA010CC2F804C062689A4201D889
:100CE0004A1C07E04FF4967251434FF47A72B1FBFD
:100CF000F2F14A1C2168D1F820C02CF03F0C42EAE6
:100D00000C020A626168994210D84900401EB0FB8B
:100D1000F1F2521CC2F30B02042A01D2042026E095
:100D2000B0FBF1F0401CC0F30B0020E0A268002AE9
:100D300050D001EBC10303EB0113A0F1010CBCFB8C
:100D4000F3F35B1C43F480431B051B0D4AD0002AC0
:100D50004AD001EBC10202EB0111401EB0FBF1F0E1
:100D6000401CC0F30B0040F4804040F40040216878
:100D7000CA6922F0FF0222F44F421043C861216A7F
:100D8000E06901432068026822F0C002114301605B
:100D9000E168206901432068826822F0FF0222F4A2
:100DA000034211438160A169606901432068C26800
:100DB00022F0FF021143C1602068016841F0010187
:100DC00001602564202084F83D00256384F83E50AE
:100DD000002070BD01EB4103A0F1010CBCFBF3F35B
:100DE0005B1CB1E70120C2E701EB4101401EB0FBF3
:100DF000F1F0401CC0F30B00B7E70000A086010033
:100E000080841E0000093D0040420F002DE9F84F8C
:100E100004468A46904699460A9FFFF71BFF0646FE
:100E200094F83D00202802D00220BDE8F88F192355
:100E300001224C492046009601F07DF810B10220B5
:100E4000BDE8F88F94F83C00012808D0012084F810
:100E50003C002068016811F0010F03D006E0022079
:100E6000BDE8F88F016841F0010101602068016868
:100E700021F400610160212084F83D00102084F8F5
:100E80003E0000252564C4F82480A4F82A90608DD3
:100E900020853548E06233463A465146204600F008
:100EA000BDFF10B10120BDE8F88F2068416980695D
:100EB0000090208D002846D032463946204601F069
:100EC00025F950B1206C042804D12068016841F450
:100ED000007101600120BDE8F88F606A2168007828
:100EE0000861606A00F1010CC4F824C0608D401EE6
:100EF0006085208D401E80B220852268516911F0E6
:100F0000040F0CD058B19CF800001061606A401CBE
:100F10006062608D401E6085208D401E20853246B7
:100F20003946204600F0D4FF50B1206C042804D18B
:100F30002068016841F4007101600120BDE8F88F6C
:100F4000208D0028B8D12068016841F4007101604B
:100F5000202084F83D0084F83E5084F83C50002066
:100F6000BDE8F88F020010000000FFFF10B586B04A
:100F70000021009101910291039100680F4988427C
:100F80001AD10F4CA06940F00800A061A069694621
:100F900000F008000490C02000901220019003206F
:100FA00003900848FFF74AFDE06940F40010E06153
:100FB000E06900F40010049006B010BD0054004039
:100FC00000100240000C0140024881680278114480
:100FD000816070471C00002010B50748016841F08F
:100FE00010010160032000F07DF8002000F006F8F9
:100FF00000F026F8002010BD0020024070B5044625
:101000000D4D4FF47A712878B1FBF0F00B49096867
:10101000B1FBF0F000F09CFB08B1012070BD102C7A
:1010200007D200222146501E00F028F86C600020F4
:1010300070BD012070BD00001C00002028000020B1
:101040000C4808B5816941F001018161816901F0B5
:1010500001010091C16941F08051C161C06900F096
:10106000805000900448416821F0E06141F0007137
:10107000416008BD001002400000014010B4184B50
:101080001B68C3F30223C3F1070CBCF1040F01D9A1
:101090004FF0040C1C1D072C01D2002300E0DB1EC6
:1010A000012404FA0CFCACF1010C0CEA010199409A
:1010B00004FA03F35B1E1A401143002806DB00F11B
:1010C000E020090180F8001410BC704700F00F0008
:1010D00000F1E020090180F8141D10BC70470000E9
:1010E0000CED00E000F00700064A11684FF6FF0320
:1010F000194041EA002040F0FD7040F0806010602F
:10110000704700000CED00E02DE9F04704460D4665
:10111000002C17D0DFF85C81D8F8000000F0070041
:10112000A84212D2D8F8000020F007002843C8F8DF
:101130000000D8F8000000F00700A84205D0012008
:10114000BDE8F0870120BDE8F08720684A4E10F026
:10115000020F14D010F0040F03D0706840F4E06068
:101160007060207810F0080F03D0706840F4605071
:101170007060706820F0F001A0680843706020780B
:1011800010F0010F3AD06068012806D002280BD079
:10119000316811F0020F27D00AE0316811F4003FE6
:1011A00006D10120BDE8F087316811F0007F18D02A
:1011B000716821F0030108437060FFF74BFD07469B
:1011C0007068616800F00C00B0EB810F16D041F23E
:1011D0008839FFF73FFDC01B484508D90320BDE80B
:1011E000F0870120BDE8F0870120BDE8F087706836
:1011F000616800F00C00B0EB810FEAD1D8F8000074
:1012000000F00700A8420FD9D8F8000020F007002E
:101210002843C8F80000D8F8000000F00700A842F2
:1012200002D00120BDE8F087207810F0040F05D02F
:101230007068E16820F4E06008437060207810F086
:10124000080F06D07068216920F4605040EAC100A0
:10125000706000F03FF87168084AC1F30311515CF7
:10126000C8400749086007480068FFF7C7FE00202C
:10127000BDE8F0870020024000100240CA33000899
:10128000280000202000002001480068704700006E
:101290002800002000B5FFF7F7FF04494968044A19
:1012A000C1F30221515CC84000BD000000100240A3
:1012B000DA33000800B5FFF7E7FF04494968044A3C
:1012C000C1F3C221515CC84000BD000000100240C3
:1012D000DA3300080E4B59680E4801F00C02042A5C
:1012E00011D0082A0FD10C48C1F38342805C11F45D
:1012F000803F09D05968094AC1F34041515C054A11
:101300005043B0FBF1F07047054948437047000077
:101310000010024000127A00BA330008B833000807
:1013200000093D002DE9F84F0446002C0FD020782D
:10133000F84D10F0010F6CD0686800F00C00042824
:101340000CD0686800F00C00082803D010E00120E1
:10135000BDE8F88F686810F4803F09D0286810F461
:10136000003F56D06068002853D10120BDE8F88FB7
:101370006068B0F5803F15D0C8B1B0F5A02F1FD080
:10138000286820F480302860286820F480202860B5
:10139000606858B3FFF75EFC0646286810F4003F0B
:1013A00017D036E0286840F480302860F0E72868DD
:1013B00020F480302860286820F480202860E7E747
:1013C000286840F480202860286840F48030286035
:1013D000DEE7FFF73FFC801B642802D90320BDE84D
:1013E000F88F286810F4003FF3D012E0FFF732FCCA
:1013F0000646286810F4003F0BD0FFF72BFC801B3B
:10140000642802D90320BDE8F88F286810F4003F53
:10141000F3D12078C04F10F0020F4FF0010B4FF0C6
:10142000000854D0686810F00C0F14D0686800F001
:101430000C00082803D1686810F4803F0BD02069A5
:1014400078B3C7F800B0FFF705FC0646286810F02F
:10145000020F12D01DE0286810F0020F05D020699D
:10146000012802D00120BDE8F88F2868616920F0CA
:10147000F80040EAC100286029E0FFF7EBFB801B81
:10148000022802D90320BDE8F88F286810F0020F67
:10149000F3D02868616920F0F80040EAC1002860B4
:1014A00015E0FFE7C7F80080FFF7D4FB0646286881
:1014B00010F0020F0BD0FFF7CDFB801B022802D9E2
:1014C0000320BDE8F88F286810F0020FF3D12078D0
:1014D00010F0080F30D09148A169C1B1C0F800B038
:1014E000FFF7B8FB0646686A10F0020F0BD1FFF752
:1014F000B1FB801B022802D90320BDE8F88F686A7F
:1015000010F0020FF3D0012000F008FF14E0C0F843
:101510000080FFF79FFB0646686A10F0020F0BD0B1
:10152000FFF798FB801B022802D90320BDE8F88F43
:10153000686A10F0020FF3D1207810F0040F6FD01A
:101540000026E86910F0805F08D1E86940F080501B
:10155000E861E86900F0805000900126DFF8C0A142
:10156000DAF8000010F4807F1BD1DAF8000040F4B4
:101570008070CAF80000FFF76DFB8146DAF80000C2
:1015800010F4807F0DD1FFF765FBA0EB0900642804
:1015900002D90320BDE8F88FDAF8000010F4807F4C
:1015A000F1D0E068012816D0D0B1052821D0286AF2
:1015B00020F001002862286A20F004002862E06818
:1015C00041F2883A68B3FFF745FB8146286A10F07C
:1015D000020F17D03AE0286A40F001002862EEE7D7
:1015E000286A20F001002862286A20F0040028629E
:1015F000E5E7286A40F004002862286A40F001000C
:101600002862DCE7FFF726FBA0EB0900504502D972
:101610000320BDE8F88F286A10F0020FF2D015E021
:101620001AE0FFE7FFF716FB8146286A10F0020F69
:101630000CD0FFF70FFBA0EB0900504502D90320A7
:10164000BDE8F88F286A10F0020FF2D1012E03D105
:10165000E86920F08050E861E069E8B3696801F06A
:101660000C0108295ED0022810D0C7F86080FFF76F
:10167000F1FA0446286810F0007F66D0FFF7EAFA16
:10168000001B022841D90320BDE8F88FC7F860800D
:10169000FFF7E0FA0646286810F0007F0BD0FFF74E
:1016A000D9FA801B022802D90320BDE8F88F2868E8
:1016B00010F0007FF3D1206AB0F5803F05D1686853
:1016C000A16820F4003008436860616A206A08431A
:1016D000696821F4741100E037E008436860C7F8D6
:1016E00060B0FFF7B7FA0446286810F0007F2CD1ED
:1016F000FFF7B0FA001B022802D90320BDE8F88FDB
:10170000286810F0007FF3D01FE0286810F0007FF9
:10171000B4D11AE00010024000004242800442426C
:101720000070004001280DD06868226A00F4803102
:10173000914204D1616A00F47010884205D0012002
:10174000BDE8F88F0120BDE8F88F0020BDE8F88FD4
:10175000401EB0F1807F01D3012070474FF0E0219F
:101760004861044AF0201070002088610720086159
:101770000020704723ED00E090F83C20012A2CD097
:10178000012280F83C20CA680023D1F808C022F466
:10179000407242EA0C02D1F804C022F4806242EAAC
:1017A0000C02D1F800C022F4006242EA0C02D1F827
:1017B00010C022F4805242EA0C02D1F814C022F484
:1017C000005242EA0C02C96922F4804211430268C5
:1017D000516480F83C30002070470220704730B4DC
:1017E00090F83C20012A30D0012480F83C400222AD
:1017F00080F83D200268D2F804C093682CF0700C89
:101800000D6845EA0C0CC2F804C00268A2F1804CD5
:10181000BCF5963C0CD0B2F1804F09D0A2F1804CBF
:10182000BCF5806C04D0A2F1804CBCF5006C04D1F6
:1018300023F0800349681943916080F83D400021FE
:1018400080F83C1030BC0020704730BC022070474C
:1018500010B50446002C03D094F83D0010B107E009
:10186000012010BD002084F83C00204600F01EF846
:10187000022084F83D00211D206800F095FD012024
:1018800084F8460084F83E0084F83F0084F8400065
:1018900084F8410084F8420084F8430084F844004E
:1018A00084F8450084F83D00002010BD08B50C4ABE
:1018B00001680C48914207D1816941F4006181615E
:1018C000806900F4006009E0B1F1804F07D1C1697F
:1018D00041F00101C161C06900F00100009008BD44
:1018E000002C01400010024090F83D10012901D069
:1018F00001207047022180F83D100068A0F180416E
:10190000B1F5963112D0B0F1804F0FD0A0F18041E7
:10191000B1F580610AD0A0F18041B1F5006105D038
:10192000016841F00101016000207047816801F009
:1019300007010629F8D0016841F001010160F3E7D1
:1019400070B50446002594F83C00012818D0012603
:1019500084F83C60022084F83D002068826822F010
:10196000770222F47F4282600868502839D00EDC6A
:10197000202854D006DC002851D0102811D14EE088
:10198000022070BD30284AD040280AD13DE06028AE
:1019900031D070280DD0B0F5805F03D0B0F5005F76
:1019A00013D0012584F83D60002084F83C002846CF
:1019B00070BDCB684A688968206800F040FD2068E7
:1019C000816841F077018160ECE7CB684A688968FB
:1019D000206800F034FD2068816841F48041816016
:1019E000E0E7CA684968206800F0FFFD50212068E0
:1019F00000F030FDD6E7CA684968206800F008FEAC
:101A00006021206800F026FDCCE7CA68496820689C
:101A100000F0EBFD4021206800F01CFDC2E72268C9
:101A20000146104600F016FDBCE7000000B585B089
:101A30000021009101910291039100680B498842B5
:101A400012D10B48816941F00401816180696946C6
:101A500000F0040004904FF4807000900220019088
:101A600003900448FEF7EAFF05B000BD002C0140DA
:101A7000001002400008014070B504460D460026E3
:101A800094F83C0001280FD0012084F83C006AB192
:101A9000042A1FD0082A32D00C2A44D00126002064
:101AA00084F83C00304670BD022070BD2946206895
:101AB00000F0D8FC2068816941F00801816120684C
:101AC000816921F004018161206881692A691143DB
:101AD0008161E4E72946206800F0F8FC206881690C
:101AE00041F4006181612068816921F48061816134
:101AF000206881692A6941EA02218161CFE729468C
:101B0000206800F017FD2068C16941F00801C1613B
:101B10002068C16921F00401C1612068C1692A6996
:101B20001143C161BBE72946206800F037FD2068FA
:101B3000C16941F40061C1612068C16921F480611B
:101B4000C1612068C1692A6941EA0221C161A6E731
:101B500010B50446002C03D094F83D0010B107E006
:101B6000012010BD002084F83C00204600F01EF843
:101B7000022084F83D00211D206800F015FC0120A2
:101B800084F8460084F83E0084F83F0084F8400062
:101B900084F8410084F8420084F8430084F844004B
:101BA00084F8450084F83D00002010BD7047000017
:101BB00010B50446002909D004290AD008290BD001
:101BC00094F8410001280AD0012010BD94F83E008D
:101BD000F8E794F83F00F5E794F84000F2E70220B8
:101BE00089B3042933D0082934D084F84100012274
:101BF000206800F015FC19492068884203D1426C26
:101C000042F4004242642068884212D0B0F1804F12
:101C10000FD0A0F18041B1F580610AD0A0F18041E0
:101C2000B1F5006105D0016841F0010101600020BB
:101C300010BD816801F007010629F8D0016841F064
:101C400001010160F3E7FFE784F83E00CFE784F885
:101C50003F00CCE784F84000C9E70000002C0140B9
:101C600070B50446002C04D094F84100002510B152
:101C700006E0012070BD84F84050204600F024F8B2
:101C8000242084F841002068C16821F40051C1601B
:101C9000204600F0D1FC2068016921F490410161E7
:101CA0002068416921F02A0141612068C16841F43E
:101CB0000051C1606564202084F8410084F842002E
:101CC0006563002070BD000030B585B0002400942D
:101CD00001940294039400681449884224D1144862
:101CE000816941F480418161816901F480410491FD
:101CF000816941F00401816180690E4D00F00400AA
:101D000004904FF400700090022001900320039093
:101D100069462846FEF792FE2815CDE9000469467B
:101D200028460294FEF78AFE05B030BD0038014017
:101D300000100240000801402DE9F84304460E4619
:101D400015461F4694F84100202802D00220BDE825
:101D5000F8837EB175B100206064212084F84100D1
:101D6000FEF778FF8046A584E584A068B0F5805F23
:101D700003D004E00120BDE8F883206970B1354646
:101D80000026E08CB8B1434600228021204600970F
:101D900000F0B6FC20B10320BDE8F8830025F0E791
:101DA000A5B12168287848606D1CE08C401EE08455
:101DB000E08C0028E7D143460022402120460097CE
:101DC00000F09EFC48B10320BDE8F883308821680C
:101DD000C0F308004860B61CE7E7202084F8410003
:101DE0000020BDE8F883FEE701684A6912F4806FBD
:101DF00011D06FF480624A6100210163202280F8D3
:101E00003D2080F83E10026C42F00402026480F82B
:101E10003C1001207047002070470000F8B50446D0
:101E20000D4617461E46E06A082808D0012806D04D
:101E300010F5803F03D0206B122806D00AE02068FE
:101E4000016841F48071016004E02068016841F498
:101E5000807101603B4600224FF001112046009640
:101E600000F069F848B12068006810F4807F02D063
:101E70004FF4007020640320F8BD2069B0F5804F56
:101E80000FD005F44070F02141EAD01021680861BC
:101E900033463A460C49204600F0C2F830B10120E2
:101EA000F8BD216805F0FE00086102E02168E8B293
:101EB000086133463A460549204600F0B1F808B1BA
:101EC0000120F8BD0020F8BD08000100020001005B
:101ED00070B504460D4616462068406910F0040FA0
:101EE00018D12046FFF780FF08B1012070BDB5F181
:101EF000FF3F0AD0FEF7AEFE801BA84200D825B9EE
:101F00002068406910F0040F06D02068406910F086
:101F1000040FE6D0002070BD00202063202184F84B
:101F20003D1084F83E00216C41F02001216484F8CA
:101F30003C00012070BD2DE9F0470446DDF82090FB
:101F40000D4617461E46C5F307482068B8F1010F35
:101F500013D0806925EA00000004000C17D000208F
:101F6000B8424DD1B6F1FF3F3DD0FEF773FEA0EB76
:101F70000900B0420DD866B135E0406925EA00009D
:101F80000004000C01D00020EAE70120E8E701206E
:101F9000E6E7B8F1010F19D02068806925EA000052
:101FA0000004000C1DD00020B8421CD1002020638A
:101FB000202184F83D1084F83E00216C41F020017E
:101FC000216484F83C000120BDE8F0872068406966
:101FD00025EA00000004000C01D00020E4E7012005
:101FE000E2E70120E0E7B8F1010F0CD0206880693A
:101FF00025EA00000004000C10D00020B842B1D047
:102000000020BDE8F0872068406925EA0000000450
:10201000000C01D00020F1E70120EFE70120EDE7FF
:102020002DE9F04704460D4616469846C5F3074786
:102030002068012F26D0806925EA00000004000CEA
:1020400059D04FF000094FF0200A2068406910F481
:10205000806F1ED02068016841F400710160216822
:102060006FF480604861C4F8309084F83DA084F833
:102070003E90206C40F00400206484F83C900120E5
:10208000BDE8F087406925EA00000004000C32D06A
:10209000D7E7B6F1FF3F25D0FEF7DCFDA0EB080047
:1020A000B04200D8F6B9012F15D02068806925EA22
:1020B00000000004000C15D0C4F8309084F83DA056
:1020C00084F83E90206C40F02000206484F83C901E
:1020D0000120BDE8F0872068406925EA000000047F
:1020E000000CE9D1012F09D02068806925EA0000A1
:1020F0000004000CA9D10020BDE8F08720684069E9
:1021000025EA00000004000C9FD1F4E770B50446F6
:102110000D4616462068406910F0800F18D1204601
:10212000FFF762FE08B1012070BDB5F1FF3F0AD094
:10213000FEF790FD801BA84200D825B920684069B1
:1021400010F0800F06D02068406910F0800FE6D0B4
:10215000002070BD00202063202184F83D1084F809
:102160003E00216C41F02001216484F83C000120F4
:1021700070BD000070B586B000241848009401942A
:1021800002940394816941F020018161816901F029
:1021900020010491816941F004018161816901F0AC
:1021A00004010491816941F00801816180690C4E4C
:1021B00000F008004FF408750490002229463046CC
:1021C000FEF741FD01200095CDE9010402200390B6
:1021D00069463046FEF732FC06B070BD0010024082
:1021E000000C014010B596B000240F941094119487
:1021F000129413941C2108A81494FDF7ACFF20211D
:102200006846FDF7A8FF2948274901604F21C0E92A
:10221000011440F2E731C0E9031444618461FFF71F
:1022200017FB08B172B6FEE74FF480500F900FA96C
:102230001E48FFF785FB08B172B6FEE71B48FFF7A3
:1022400087FC08B172B6FEE7139413A917481494DB
:10225000FFF7C5FA08B172B6FEE760200890C72004
:10226000CDE909040B940C940D94002208A90F48A1
:102270000E94FFF701FC08B172B6FEE700944FF42C
:102280000050CDE904400294019403946946074844
:102290000794FFF771FA08B172B6FEE70348FFF73B
:1022A000C5FB16B010BD0000002C014080000020CE
:1022B00010B586B00024164800940194029403944B
:1022C00004944FF08041059401604721C0E9011456
:1022D0004FF6FF71C0E903148461FFF7B9FA08B142
:1022E00072B6FEE74FF48050009069460848FFF749
:1022F00027FB08B172B6FEE7049404A904480594CC
:10230000FFF76DFA002801D072B6FEE706B010BDE7
:10231000C8000020FEE770477047000081B0074901
:102320004FF4FA520968B1FBF2F14843009000BF44
:102330000098411E0091FAD201B070472800002099
:102340007047FEF741BE30B58FB028216846FDF7D3
:1023500002FF14210AA8FDF7FEFE01210804CDE9C1
:1023600000100024029402250491CDE907504FF497
:10237000E01009906846FEF7D5FF08B172B6FEE797
:102380000F20CDE90A054FF48060CDE90C40022111
:102390000AA80E94FEF7B8FE002801D072B6FEE738
:1023A0000FB030BD7047000030B40268194B1A4CB2
:1023B000DFF868C0984206D0B0F1804F03D0A04249
:1023C00001D0604503D122F070024D682A43984243
:1023D00006D0B0F1804F03D0A04201D0604505D1B6
:1023E00022F44072D1F80CC04CEA0202D1F814C0B9
:1023F00022F0800242EA0C0202608A68C2620A6825
:102400008262984201D1096901630121416130BCB6
:1024100070470000002C014000040040000800400C
:1024200001F01F0101238B40D0F820C02CEA0303E8
:102430000362036A02FA01F1194301627047D0F89E
:1024400008C02CF47F4C42EA0322114341EA0C01FC
:1024500081607047826822F07002114341F00701E9
:102460008160704710B4036A026A22F001020262BE
:102470004268D0F818C02CF0700C2CF0030C0C68DB
:1024800044EA0C0C23F002038C6823430E4CA04258
:1024900006D123F00803CC6844EA030323F00403C5
:1024A00009D122F4807222F400724C6944EA0202DB
:1024B0008C6944EA02024260C0F818C0496841636E
:1024C000036210BC70470000002C014010B4036A86
:1024D000026A22F0100202624268D0F818C02CF49E
:1024E000E04C2CF4407C0C684CEA042C23F02003D4
:1024F0008C6843EA04130E4CA04206D123F08003FB
:10250000CC6843EA041323F0400309D122F480622B
:1025100022F400624C6942EA84028C6942EA840235
:102520004260C0F818C049688163036210BC7047FC
:10253000002C014010B4036A026A22F48072026225
:102540004268D0F81CC02CF0700C2CF0030C0C6806
:1025500044EA0C0C23F400738C6843EA04230E4C09
:10256000A04206D123F40063CC6843EA042323F499
:10257000806309D122F4805222F400524C6942EA6D
:1025800004128C6942EA04124260C0F81CC0496817
:10259000C163036210BC7047002C014010B4036A91
:1025A000026A22F4805202624268D0F81CC02CF405
:1025B000E04C2CF4407C0C684CEA042C23F40053CF
:1025C0008C6843EA0433A0F18044B4F5963404D116
:1025D00022F480424C6942EA84124260C0F81CC076
:1025E00049680164036210BC7047036AD0F820C0D8
:1025F0002CF0010CC0F820C0D0F818C02CF0F00C62
:102600004CEA021223F00A03194382610162704707
:10261000036AD0F820C02CF0100CC0F820C0D0F80D
:1026200018C02CF4704C4CEA023223F0A00343EAA9
:10263000011182610162704770B50446206801692A
:10264000E26821F44051114301612169A068084307
:10265000616901432068C26822F4037222F4A05227
:102660001143C16020684169A26921F4407111439E
:1026700041612068A0F18041B1F59C313AD0FEF76C
:1026800009FE00EBC00101EB001061681B4A8900E4
:10269000B0FBF1F3A2FB0353B0FBF1FC5B096FF05D
:1026A00018056B430CEB83034FF0320C0CEB031358
:1026B000A2FB03535B0903F0F005B0FBF1F3A2FBAF
:1026C00003635B0905EB0313B0FBF1F5B0FBF1F01D
:1026D000A2FB001040096FF01801484305EB800091
:1026E0000CEB0010A2FB00102168C0F3431018444B
:1026F000886070BDFEF7DEFDC3E700001F85EB516B
:102700002DE9F0410446069D884616461F4620687E
:10271000006838EA00002AD00020B04231D1B5F17B
:10272000FF3F26D025B1FEF795FAC01BA84220D95D
:1027300020680C3050E8001F21F4D07140E80012EE
:10274000002AF5D12068143050E8001F21F0010163
:1027500040E80012002AF5D1202084F8410084F8D6
:102760004200002084F840000320BDE8F0810120F1
:10277000D3E72068006838EA000005D00020B042A6
:10278000CDD00020BDE8F0810120F8E7FEE7000091
:102790000FB4084B10B504A902AA039800F0DEF8A4
:1027A000044602A9002000F05CFC204610BC5DF845
:1027B00014FB00006330000802E008C8121F08C1C3
:1027C000002AFAD170477047002001E001C1121FB2
:1027D000002AFBD1704700002DE9FF5F82B0002185
:1027E000DDE90430020DDDF840B0034318D044F6B3
:1027F0001050A2F2FF3242431514119801281FD045
:10280000A5EB0B00401C5FEA000A4FF000064E4F9C
:10281000DFF83891B046504615D5CAF1000413E0F0
:10282000119801244AA3012801D16FEA0B010298F3
:10283000119AC0E90031C0E9024206B0BDE8F09F3C
:10284000CBF10000DFE704460021404A491842EB83
:102850000450CDE9001012E0E00707D032463B46B5
:1028600040464946FDF78EFE8046894632463B4645
:1028700010461946FDF786FE06460F466410002CEA
:10288000EAD1DDE90401DDE90023BAF1000F06DA3F
:10289000FDF778FE42464B46FDF774FE05E0FDF776
:1028A000E3FE42464B46FDF7DFFE04460E4600229D
:1028B000284BFDF761FF03D84FF0FF30014607E0DA
:1028C0000022254B20463146FDF7B5FDFDF73BFFC5
:1028D000102409E0002C0ADB0A220023FDF743FD47
:1028E000039B30321A55641E50EA0102F2D1641C77
:1028F000039AC4F111031444119A012A03D001224E
:1029000008430DD10AE0084304D000204FF0110B1A
:10291000119072E7A3EB0B056D1E0DE05B4504DD26
:102920004FF0000205F1010504E003DA4FF0000268
:10293000A5F10105002AECD002981199C0E90231F5
:10294000C0E9004579E70000000014400000F03FB6
:10295000300000000000F0430000E03F2DE9FF4F91
:1029600095B09A46884606460025EEE1252877D19F
:1029700000242746F94A0121039400E0044316F895
:10298000013F203B01FA03F01042F7D130782A28AA
:1029900011D06FF02F033078A0F13002092A16D839
:1029A000039A44F0020402EB820203EB4202104459
:1029B000761C0390EFE758F8042B0392002A03DA01
:1029C000504244F40054039044F00204761C3078E2
:1029D0002E2816D116F8010F44F004042A280DD031
:1029E0006FF02F023078A0F13003092B09D807EBE4
:1029F000870302EB4303C718761CF3E758F8047B00
:102A0000761C30786C280FD006DC4C2817D068284C
:102A10000DD06A2814D104E0742810D07A280FD180
:102A20000DE044F400140AE044F4801401E044F49E
:102A300040147278824202D104F58014761C761C10
:102A4000307866280BD013DC582877D009DC0028B2
:102A500075D04528F6D04628F4D047281AD193E1FE
:102A600018E0632835D0642879D0652812D18BE12D
:102A7000702873D008DC6728F1D069286FD06E28E1
:102A80000DD06F2806D1ACE073282CD0752874D0F7
:102A9000782853D05246179990476D1C54E1C4F3DF
:102AA0000250022809D003280DD0D8F800100428BD
:102AB0000DD00D6008F1040846E1D8F80010EA17BF
:102AC000C1E90052F6E7D8F800100D80F2E70D706A
:102AD000F0E718F8041B8DF8001000208DF80100B5
:102AE000EB46012003E058F804BB4FF0FF306107CC
:102AF0004FF0000102D40DE009F101018946B9420D
:102B00000FDA8145F8DB1BF809100029F4D108E041
:102B100009F1010189468142FADB1BF809100029FD
:102B2000F6D103985346A0EB090721463846179A79
:102B300000F080FA284400EB090507E044E008E1D2
:102B40000DE01BF8010B524617999047B9F10109A6
:102B5000F7D2534621463846179AF2E039E00A2167
:102B6000C4F302524FF0000B0091022A06D058F82D
:102B7000040BC117032A09D00AE023E008F107007B
:102B800020F00702F2E80201904605E000B2C1170A
:102B9000042A01D140B2C117002906DA0A460021F1
:102BA000404261EB02012D2202E0220504D52B22D6
:102BB0008DF80420012203E0E20701D02022F7E78C
:102BC000914657E00A2100E010214FF0000B0091E0
:102BD0000BE010214FF0000B44F004040827009193
:102BE00003E008204FF0000B0090C4F30252022AC9
:102BF00005D058F8040B0021032A08D008E008F19A
:102C0000070020F00702F2E80201904603E080B2DC
:102C1000042A00D1C0B24FF0000922072AD5327829
:102C2000702A07D0DDF800C08CF0100C5CEA0B0CA9
:102C300005D00EE040228DF80420012208E050EA81
:102C4000010306D030238DF804308DF805200222D0
:102C50009146009B83F0080353EA0B030AD150EA24
:102C6000010201D1620705D530228DF804204FF012
:102C700001097F1E3278582A04D039A20C920CAA7E
:102C800002920BE03BA2F9E75B46009AFDF76BFB73
:102C90000C9B9B5C029A521E0292137050EA010236
:102CA000F2D1029804A9081A00F1200B600702D59E
:102CB00024F4803400E001275F4502DDA7EB0B0020
:102CC00000E0002000EB0B01009003984944401AFB
:102CD0000390E00306D453462146179A039800F068
:102CE000A9F90544002706E001A85246C05D1799DE
:102CF00090476D1C7F1C4F45F6DBE0030CD5534617
:102D00002146179A039800F095F9054404E0302015
:102D10005246179990476D1C0099481E0090002953
:102D2000F5DC08E00298029952460078491C0291AD
:102D3000179990476D1CBBF10001ABF1010BF1DC61
:102D40005BE100F065F90544761C307800287FF4DB
:102D50000DAE19B02846BDE8F08F0000092801002B
:102D60003031323334353637383961626364656601
:102D700000000000303132333435363738394142C3
:102D80004344454600000000600700D4062708F1D0
:102D9000070020F00700F0E80223804603F0004C13
:102DA0005FEA0C0001D097A009E0200501D596A0AC
:102DB00005E0E00701D095A001E0AFF24C001390D0
:102DC000307823F0004365280CD006DC452809D074
:102DD00046281DD047287FD13BE0662818D06728B9
:102DE0007AD136E00021112F01DB112000E0781CA0
:102DF000CDE9000104A90CA8FFF7EEFCDDE90D0107
:102E00000C9A4FF0000B07F10109109200914EE06F
:102E10004FF000400097CDE9011004A90CA8FFF77E
:102E2000DBFCDDE90D020C9B0F994FF0000B914686
:102E30001093009211B9791C00EB0109B7EB09005E
:102E400003D4C0F1FF3B07F10109A9EB0700019092
:102E500042E0012F00DA01270021112F01DD1120AE
:102E600000E03846CDE9000104A90CA8FFF7B4FC46
:102E7000DDE90D010C9A00914FF0000BB94610925C
:102E800021070FD4009A4A4503DA914601E0A9F1DF
:102E90000109B9F1010F05DD109AA9F10101515C99
:102EA0003029F4D0B84202DA10F1040F03DA01211C
:102EB000CDE9011010E0002803DC8344A9EB0001F8
:102EC00002E0411C494500DD8946A0EB0B00401C97
:102ED00001904FF000400290200705D4019848452A
:102EE00002DB4FF0FF30019000208DF84B0002987C
:102EF0000DF14B07B0F1004F25D002200C902B2094
:102F00000D90029800280CDA404202902D200D907E
:102F100007E00A210298FDF710FA3031029007F815
:102F2000011D0C99481E0C900029F2DC0298002823
:102F3000EFD1791E0D980870307800F0200040F035
:102F4000450007F8020D11A8C01BC01D0290139880
:102F5000007800B1012000EB0901019801EBE0715C
:102F6000029801440398401A401E0390E00306D4DF
:102F700053462146179A039800F05CF805441398CD
:102F8000007818B15246179990476D1CE00323D57D
:102F900053462146179A039800F04CF805441BE06D
:102FA000BBF1000F07DB0098584504DD1098179916
:102FB00010F80B0001E01799302052469047019815
:102FC0000BF1010B401E05F10105019004D12E20EB
:102FD0005246179990476D1CB9F10001A9F10109FA
:102FE000DEDC05E017F8010B5246179990476D1C7F
:102FF0000299481E02900029F4DC53462146179A94
:1030000003989EE62D0000002B0000002000000029
:103010002DE9F041044600251E461746880404D4D5
:1030200005E039462020B0476D1C641EF9D52846BE
:10303000BDE8F0812DE9F041044600251E4690468A
:10304000C80301D5302700E02027880404D505E017
:1030500041463846B0476D1C641EF9D52846BDE888
:10306000F0810A68531C0B601070704710B5322055
:10307000FDF7D0FC302000F041F80520FDF7CAFC38
:10308000302000F03BF80120FDF7C4FC302000F0B8
:1030900035F80A20FDF7BEFC202000F02FF80A20AA
:1030A000FDF7B8FC282000F029F80120FDF7B2FC5C
:1030B000082000F023F80120FDF7ACFC012000F00F
:1030C0001DF80120FDF7A6FC0120FDF7A3FC06205A
:1030D00000F014F80120FDF79DFCBDE810400C2025
:1030E00000F00CB810B1012805D102E041F08001D8
:1030F00001E041F0C001C8B2AFF300801CB500F0A0
:10310000F00141F00C028DF8042041F008010001AB
:103110008DF8051040F00C018DF8061040F0080005
:103120008DF8070064200090042301AA4E21024874
:10313000FDF76CFE1CBD00002C0000201CB500F04B
:10314000F00141F00D028DF8042041F00901000169
:103150008DF8051040F00D018DF8061040F00900C3
:103160008DF8070064200090042301AA4E21024834
:10317000FDF74CFE1CBD00002C00002010B50446DD
:1031800002E0641CFFF7DAFF20780028F9D110BDB7
:103190008EB0FDF721FFFFF7D6F8FEF7EBFF6E4884
:1031A0006C49002401606D49C0E901144FF480416D
:1031B000C0E9034144618461C4610462FDF750FDCC
:1031C00008B172B6FEE7FFF70DF863486449E430D2
:1031D00001604FF4E131C0E901140C21C460C0E981
:1031E00004418461C461FEF73BFD08B172B6FEE79D
:1031F000FFF75EF858489C30FEF776FB56480021F2
:103200005430FEF7D5FCFFF731FFDFF84C81DFF8D3
:103210005491DFF854A1554D554C08F1540800BFA6
:10322000FDF7A2FB00287CD0FDF750FB2070FDF7D6
:103230004DFB6070FDF74AFBA070FDF747FBE070A7
:10324000FDF744FB2071277866780246A178B8190B
:103250004318E0780344DBB26371934220D17F29A5
:1032600003D9FDF752F8434904E040EA0120FDF795
:103270004CF84946FDF70BF83F49A060FCF7D5FF35
:103280003E49FDF704F84FF08441FCF776FFE0601B
:1032900046EA0720FDF739F84946FCF7F8FF2061B8
:1032A000A068A84201DD012200E000222021504652
:1032B000FDF7C9FC3249A068884202DD40F2833242
:1032C00009E0A84202DD40F2BB2204E02D49884219
:1032D00004DD40F2F312D8F800104A63FDF71AF843
:1032E00002460B4628A16846FFF752FA6846FCF7EB
:1032F0003DFF82B218484FF0FF3633466946E4304E
:10330000FEF71AFD00210846FFF7ECFE6846FFF7BE
:1033100035FF2069FCF7FEFF02460B461DA16846FB
:1033200000E012E0FFF734FA6846FCF71FFF82B2B4
:10333000094833466946E430FEF7FEFC00210120CF
:10334000FFF7D0FE6846FFF719FF6420FDF762FB28
:1033500066E70000005400402C000020A086010019
:103360000038014000002041000C01400000F04105
:1033700000000020000020C1000010410000A0401B
:10338000000020420000A04154656D703A20252EB7
:103390003266000048756D3A20252E326600000026
:1033A000044900220B685A6209684A6A8242FCD3C7
:1033B00070470000C8000020010202030405060750
:1033C00008090A0B0C0D0E0F101000000000000081
:1033D00000000102030406070809000000000102C2
:1033E0000304000004340008000000202C0000004A
:1033F000B8270008303400082C0000202C050000FD
:10340000C8270008000000000000000000000000C5
:1034100000000000000000000000000000000000AC
:103420000100000010000000000000000024F40073
:04000005080000ED02
:00000001FF
